:020000040000FA
:060000000A128A110C280F
:10000800FE00030EF8000A08F9000A128A11192ED8
:100018000A128A110F2883136230FD000730FE0090
:10002800F830FF005A3084000A128A15B2260A12E4
:100038008A11463084005A300A128A1578260A1224
:100048008A11FC01FD0183010A128A112B2807304D
:100058008316031385000330860087018801831205
:10006800031385118601831603178901013088005F
:100078000814831203131F14831603139F17831284
:1000880003131F119F111F129F12831603139F1230
:100098001F12831203131F179F17831603130113CD
:1000A8000B168B170B170C148312031310149010D4
:1000B800101690160B308F00DC308E000A128A154D
:1000C8008F270A128A1180300A128A158A260A1284
:1000D8008A11831203139F14DB2B48084904031D5C
:1000E800762877288E2880300A128A158A260A12DE
:1000F8008A11831203135108AF005008AE00DF3095
:10010800B0000030B100AA300A128A11F4230A1292
:100118008A11AA2848034904031D93289428AA2869
:1001280080300A128A158A260A128A11831203134A
:100138005108AF005008AE00DF30B0000030B10009
:1001480098300A128A11F4230A128A1183120313AF
:100158004C034D04031DB128B228BF28C0300A1231
:100168008A158A260A128A1139300A128A11F4234A
:100178000A128A11D1284C084D04031DC428C52829
:10018800D128C0300A128A158A260A128A110B3021
:100198000A128A11F4230A128A1183120313861C85
:1001A800D628D7286D280130CE070318CF0A00308B
:1001B800CF07023083120313C5004530C400A930AD
:1001C800C300C30BE528C40BE528C50BE5286D283B
:1001D80080300A128A158A260A128A1186300A1273
:1001E8008A11F4230A128A11C0300A128A158A2643
:1001F8000A128A11831203135B08AF005A08AE0073
:10020800DF30B0000030B1004E300A128A11F423FA
:100218000A128A1183120313061D132914292F2980
:1002280046084704031D19291A292F290330831268
:100238000313C5008A30C4005530C300C30B2229FC
:10024800C40B2229C50B2229013083120313C600CF
:100258000030C7004929061D322933294929460398
:100268004704031D382939294929C601C701033024
:1002780083120313C5008A30C4005530C300C30B72
:100288004329C40B4329C50B432983120313861C36
:100298004E294F29562946084704031D5429552934
:1002A8005629D728861C59295A296D2846034704F8
:1002B800031D5F2960296D28023083120313C500CE
:1002C8004530C400A930C300C30B6829C40B682992
:1002D800C50B6829831203135A08053EDA005B0828
:1002E8000318013E003EDB0069305A065B04031D1B
:1002F8007E297F296D280A30DA000030DB006D285E
:1003080080300A128A158A260A128A1174300A1253
:100318008A11F4230A128A11C0300A128A158A2611
:100328000A128A11831203136108AF006008AE0035
:100338005708B1005608B0005908B3005808B20071
:1003480022300A128A11F4230A128A118312031323
:10035800061DAF29B029CB2946084704031DB52936
:10036800B629CB29033083120313C5008A30C40091
:100378005530C300C30BBE29C40BBE29C50BBE290B
:10038800013083120313C6000030C700032A061D7C
:10039800CE29CF29E82946034704031DD429D529A6
:1003A800E8290230C6000030C70003308312031367
:1003B800C5008A30C4005530C300C30BE129C40B03
:1003C800E129C50BE129032A061DEB29EC29032A9B
:1003D800023046064704031DF229F329032AC60101
:1003E800C701033083120313C5008A30C400553097
:1003F800C300C30BFD29C40BFD29C50BFD298312BE
:100408000313861C082A092A102A46084704031DD4
:100418000E2A0F2A102AD728861C132A142A3A2AA9
:1004280046034704031D192A1A2A3A2A0130D60717
:100438000318D70A0030D707003057023C30031999
:100448005602031C282A292A2B2AD601D701023052
:1004580083120313C5004530C400A930C300C30B81
:10046800332AC40B332AC50B332A6D28861C3D2A30
:100478003E2A6D28023046064704031D442A452AB1
:100488006D280130E0070318E10A0030E107003069
:100498006102183003196002031C532A542A2B2ABC
:1004A800E001E1012B2A80300A128A158A260A12F5
:1004B8008A11CD300A128A11F4230A128A11C03027
:1004C8000A128A158A260A128A11831203135F08F0
:1004D800AF005E08AE005508B1005408B0006130A6
:1004E8000A128A11F4230A128A1183120313061DB1
:1004F8007E2A7F2A9A2A46084704031D842A852AC9
:100508009A2A033083120313C5008A30C400553079
:10051800C300C30B8D2AC40B8D2AC50B8D2A01304D
:1005280083120313C6000030C700D22A061D9D2A75
:100538009E2AB72A46034704031DA32AA42AB72ADA
:100548000230C6000030C700033083120313C50011
:100558008A30C4005530C300C30BB02AC40BB02A7C
:10056800C50BB02AD22A061DBA2ABB2AD22A0230C3
:1005780046064704031DC12AC22AD22AC601C7015A
:10058800033083120313C5008A30C4005530C300FA
:10059800C30BCC2AC40BCC2AC50BCC2A8312031359
:1005A800861CD72AD82ADF2A46084704031DDD2AD5
:1005B800DE2ADF2AD728861CE22AE32AFB2A4603FA
:1005C8004704031DE82AE92AFB2A0130D407031847
:1005D800D50A0030D507003055023C3003195402C3
:1005E800031CF72AF82A2B2AD401D5012B2A861CAA
:1005F800FE2AFF2A6D28023046064704031D052BF4
:10060800062B6D280130DE070318DF0A0030DF07EC
:1006180000305F02183003195E02031C142B152BDF
:100628002B2ADE01DF012B2A80300A128A158A263E
:100638000A128A11BC300A128A11F4230A128A118A
:10064800C0300A128A158A260A128A1183120313E5
:100658005D08AF005C08AE005308B1005208B00056
:1006680061300A128A11F4230A128A1183120313C1
:10067800061D3F2B402B5B2B46084704031D452BCB
:10068800462B5B2B033083120313C5008A30C4004A
:100698005530C300C30B4E2BC40B4E2BC50B4E2B32
:1006A800013083120313C6000030C700932B061DC8
:1006B8005E2B5F2B782B46034704031D642B652BA9
:1006C800782B0230C6000030C700033083120313B2
:1006D800C5008A30C4005530C300C30B712BC40B4E
:1006E800712BC50B712B932B061D7B2B7C2B932B0E
:1006F800023046064704031D822B832B932BC60129
:10070800C701033083120313C5008A30C400553073
:10071800C300C30B8D2BC40B8D2BC50B8D2B8312E4
:100728000313861C982B992BA22B46084704031DFC
:100738009E2B9F2BA22BCE01CF012B2A861CA52BEB
:10074800A62BBE2B46034704031DAB2BAC2BBE2B9D
:100758000130D2070318D30A0030D3070030530200
:100768003C3003195202031CBA2BBB2B2B2AD20193
:10077800D3012B2A861CC12BC22B6D2802304606BA
:100788004704031DC82BC92B6D280130DC0703184B
:10079800DD0A0030DD0700305D02183003195C0205
:1007A800031CD72BD82B2B2ADC01DD012B2A4F0861
:1007B800003A0319E02B6D284E08003A03197128F6
:1007C800013A0319EC28033A03198429013A031959
:1007D800572A073A0319182B6D280A128A110C2870
:1007E80083120313C1002E30B4003408B900042E5C
:1007F800253042060319012C022C092C42080A1242
:100808008A1580260A128A11042EBF01C001BE0172
:10081800122C3E150130B4003408C1074108840089
:100828000A128A1101270A128A11B400B501350883
:10083800003A0319202C252C3408303A03190D2CC2
:10084800252C410884000A128A1101270A128A11EC
:100858000A128A11E4270A128A11031C342C352C37
:10086800D22C83120313BF01C0010A308312031371
:10087800A0000030A1004008A3003F08A2000A120F
:100888008A15E6260A128A11831203132108C0006A
:100898002008BF00410884000A128A1101270A12A1
:1008A8008A11D03EB400FF3003180030B500340878
:1008B800BF070318C00A3508C0070130B400340860
:1008C800C107410884000A128A1101270A128A11F5
:1008D8000A128A11E4270A128A110318742C752C3B
:1008E800392CD22C00304002023003193F02031C7D
:1008F8007E2C7F2C862CFF30BF070318C00AFF30E0
:10090800C0078F2CBF01C0018F2C20300A128A1516
:1009180080260A128A11FF3083120313BF070318B7
:10092800C00AFF30C0073F0A031D9E2C400A031D62
:100938009E2C9F2C892CAF2C370884008313000829
:100948000A128A1580260A128A11013083120313AB
:10095800B4003408B7070130BA020030031CBB03E7
:10096800BB023A0A031DBC2C3B0A031DBC2CBD2C40
:10097800A02C042E3908840083130008B40034081E
:10098800C2000230B4003408B9074230B400340859
:10099800B7000130BA000030BB00762C013083125A
:1009A8000313C107FF30410784000A128A11012787
:1009B8000A128A11C200B400B5013508003A0319B9
:1009C800E62CC92C3408003A0319182E633A031987
:1009D800BE2C073A0319F42C0D3A0319F42CC92C30
:1009E8003908840083130008BC00840A0008BD008D
:1009F8000230B4003408B907BD1F032D042D0D2D96
:100A08000330B4003408BE04BC09BD09BC0A03198C
:100A1800BD0AC201C20A05304206031D142D152D58
:100A2800162D3C2D4208B4003407013E84000A12FA
:100A38008A1101270A128A11B5000A128A110127A0
:100A48000A128A11B60036083D02031D2D2D3508FD
:100A58003C020318302D312D322D3C2D0130B400CD
:100A68003408C20705304206031D3B2D3C2D162DC8
:100A78003F0840040319412D422D4E2D3E080339ED
:100A88000319472D482D4E2DFF30BF070318C00A04
:100A9800FF30C0074008803A803C031D552D3F08B1
:100AA80042020318582D592D652D8312031342084D
:100AB800B400B5013408BF023508031CC003C002E6
:100AC800692D83120313BF01C0013E1D6C2D6D2DCE
:100AD800962D3E0803390319722D732D792D2D306B
:100AE8000A128A1580260A128A11831203133F08F4
:100AF80040040319802D812DBC2D30300A128A152F
:100B080080260A128A11FF3083120313BF070318C5
:100B1800C00AFF30C0073F084004031D942D952DDF
:100B2800812DBC2D3F08400403199B2D9C2DB02D11
:100B380020300A128A1580260A128A11FF30831281
:100B48000313BF070318C00AFF30C0073F0840045B
:100B5800031DAF2DB02D9C2D3E0803390319B52D6B
:100B6800B62DBC2D2D300A128A1580260A128A113C
:100B7800831203134208B4003408B800F92D0A3070
:100B8800A8000030A9003808B4003407013E8400EA
:100B98000A128A1101270A128A11A0000A128A1160
:100BA80001270A128A11A1003D08A3003C08A200EF
:100BB8000A128A1549270A128A1183120313210877
:100BC800AB002008AA000A128A150D270A128A11FA
:100BD800831203132808303EB5003508C2004208C6
:100BE8000A128A1580260A128A11FF30831203130B
:100BF800B4003408B807380A031D032E042EC32D89
:100C0800013083120313C107FF30410784000A1221
:100C18008A1101270A128A11B4003408C200420856
:100C2800031D172E182EFC2B0800831203130C1C0F
:100C38001E2E1F2EFA2E00307D02033003197C026F
:100C4800031C272E282E572E0130D8070318D90A3F
:100C58000030D907FC01FD013C3058065904031D3A
:100C6800362E372E3F2ED801D9010130D60703186A
:100C7800D70A0030D7073C3056065704031D452EC7
:100C8800462E4E2ED601D7010130E0070318E10A9F
:100C98000030E107183060066104031D542E552EFC
:100CA800572EE001E1010130FC070318FD0A00306E
:100CB800FD071E08FB00831603131E08FA007B08B5
:100CC800F1007A08F0007D30F2000030F3000A12DB
:100CD8008A15C1260A128A117008F6007108F700F1
:100CE8007708F600F701760883120313D000770817
:100CF800D10055085706031D832E54085606031DB8
:100D0800862E872E962E5F086106031D8D2E5E089F
:100D18006006031D902E912E962E0130CC000030D7
:100D2800CD00AC2E53085706031D9C2E52085606BC
:100D3800031D9F2EA02EAC2E5D086106031DA62E56
:100D48005C086006031DA92EAA2EAC2ECC01CD018D
:100D58004C034D04031DB12EB22EE02E5A08053E59
:100D6800F6005B080318013E003EF70077085102C1
:100D7800031DC02E76085002031CC32EC42EC82E95
:100D88008511CA01CB01E32E5A08FB3EF6005B0829
:100D98000318013EFF3EF70051087702031DD62EC7
:100DA80050087602031CD92EDA2EE32E8515013061
:100DB800CA000030CB00E32E8511CC01CD01851C83
:100DC800E62EE72EEC2E0130C8000030C900F52EC3
:100DD8008518EF2EF02EF52EC801C901CC01CD01E2
:100DE80085110C100B308F00DC308E0079088A00DA
:100DF800780E8300FE0E7E0E090007308A00040874
:100E0800840A82070034013400340A34003464341C
:100E18000034E83403341034273441343A34443449
:100E2800453453344C3449344734413444344F34D2
:100E3800203420342034203420342034203420340A
:100E4800203420342034003420342034203420341A
:100E580025343034323464343A342534303432343E
:100E680064343A3425343034323464342034203411
:100E780020342034003441343A344C344934473433
:100E8800413444344F342034203420342034203446
:100E980020342034203420342034203420340034CA
:100EA8002034203420342034203420342534643451
:100EB800253463344334203420342034203420341F
:100EC800203420340034203420342034203420349A
:100ED80025343034323464343A34253430343234BE
:100EE8006434203420342034203400342034203436
:100EF800203420342034523445344C344F34473471
:100F080049344F3420342034203420342034003401
:100F1800203420342034543445344D34503445344E
:100F2800523441345434553452344134203420340A
:100F38002034003454343A3425346434253463344A
:100F48004334203420344E343A3441344C3454340D
:100F58004F3420342034003454343A342534643443
:100F6800253463344334203420344E343A34423404
:100F78004134493458344F34203400342034483410
:100F88004F345234413420344434453420345034BE
:100F98004134523441344434413420340034203410
:100FA80048344F34523441342034443445342034A6
:100FB80049344E344934433449344F3420340034AE
:100FC80083120313A100A0013A3021020318ED2F68
:100FD800EE2FF62F30302102031CF32FF42FF62FBB
:100FE800A001A00A200C080028340034143400346E
:080FF8000C3400340C34003409
:101CF00064008001840A0406031900340406792E66
:101D000083120313A20022080A128A159C260A12C3
:101D10008A15080083120313A100071020308312D4
:101D20000313A000A00B922E0000831203132108BE
:101D3000880087148710080083120313A10007147A
:101D4000203083120313A000A00BA42E00008312E6
:101D50000313210888008714871008007E088A0072
:101D60007F0882000A128A15AE260A128A158000A0
:101D7000840A04087D0603190034FF0A0319FE0AC9
:101D8000B22EF401F501701CC62EC72ECD2E72089E
:101D9000F4070318F50A7308F50701300310F20D74
:101DA000F30DFF3E031DCE2E01300310F10CF00C9D
:101DB000FF3E031DD52E70087104031DE02EE12E99
:101DC000C32E7508F1007408F00008008312031395
:101DD000A401A501201CED2EEE2EF42E2208A4074E
:101DE0000318A50A2308A50701300310A20DA30DAF
:101DF000FF3E031DF52E01300310A10CA00CFF3E89
:101E0000031DFC2E20082104031D072F082FEA2E96
:101E10002508A1002408A000080083120313280845
:101E200029040319142F152F442FAD01AD0A232FB8
:101E300001300310A80DA90DFF3E031D192F01301D
:101E4000AC002C08AD07A91F262F272F182F290813
:101E50002B02031D2D2F28082A02031C302F312F9F
:101E6000372F2808AA022908031CAB03AB02013054
:101E70000310A90CA80CFF3E031D382F0130AD0242
:101E8000031D432F442F272F2B08A9002A08A80041
:101E9000080083120313A501A601200821040319D9
:101EA000522F532F8A2FA701A70A612F0130031049
:101EB000A00DA10DFF3E031D572F0130A4002408E3
:101EC000A707A11F642F652F562F01300310A50D02
:101ED000A60DFF3E031D662F21082302031D722F4E
:101EE00020082202031C752F762F7D2F2008A202C6
:101EF0002108031CA303A302251401300310A10C25
:101F0000A00CFF3E031D7E2F0130A702031D892F69
:101F10008A2F652F2608A1002508A000080083123B
:101F2000031307108710143083120313A3007930B2
:101F3000A200A20B992FA30B992F30300A128A15F9
:101F40008A260A128A15073083120313A3007C30F5
:101F5000A200A20BA92FA30BA92F000030300A1258
:101F60008A158A260A128A15203083120313A200CA
:101F7000A20BB82F000030300A128A158A260A12E6
:101F80008A150C3083120313A200A20BC52F000088
:101F900038300A128A158A260A128A150C308312E2
:101FA0000313A200A20BD22F000001300A128A15DF
:101FB0008A260A128A15033083120313A30097306E
:101FC000A200A20BE12FA30BE12F0C300A128A15FD
:101FD0008A260A128A150C3083120313A200A20B60
:101FE000EF2F000006300A128A158A260A128A1577
:101FF0000C3083120313A200A20BFC2F0000080078
:04400E00F42FFF3F4D
:00000001FF
